{
  "_format": "hh-sol-artifact-1",
  "contractName": "BridgeBsc",
  "sourceName": "contracts/BridgeBsc.sol",
  "abi": [
    {
      "inputs": [
        {
          "internalType": "string",
          "name": "_name",
          "type": "string"
        },
        {
          "internalType": "string",
          "name": "_symbol",
          "type": "string"
        }
      ],
      "stateMutability": "nonpayable",
      "type": "constructor"
    },
    {
      "anonymous": false,
      "inputs": [
        {
          "indexed": true,
          "internalType": "address",
          "name": "owner",
          "type": "address"
        },
        {
          "indexed": true,
          "internalType": "address",
          "name": "spender",
          "type": "address"
        },
        {
          "indexed": false,
          "internalType": "uint256",
          "name": "value",
          "type": "uint256"
        }
      ],
      "name": "Approval",
      "type": "event"
    },
    {
      "anonymous": false,
      "inputs": [
        {
          "indexed": false,
          "internalType": "address",
          "name": "to",
          "type": "address"
        },
        {
          "indexed": false,
          "internalType": "uint256",
          "name": "amount",
          "type": "uint256"
        }
      ],
      "name": "Burn",
      "type": "event"
    },
    {
      "anonymous": false,
      "inputs": [
        {
          "indexed": false,
          "internalType": "address",
          "name": "to",
          "type": "address"
        },
        {
          "indexed": false,
          "internalType": "uint256",
          "name": "amount",
          "type": "uint256"
        }
      ],
      "name": "Mint",
      "type": "event"
    },
    {
      "anonymous": false,
      "inputs": [
        {
          "indexed": true,
          "internalType": "address",
          "name": "from",
          "type": "address"
        },
        {
          "indexed": true,
          "internalType": "address",
          "name": "to",
          "type": "address"
        },
        {
          "indexed": false,
          "internalType": "uint256",
          "name": "value",
          "type": "uint256"
        }
      ],
      "name": "Transfer",
      "type": "event"
    },
    {
      "inputs": [
        {
          "internalType": "address",
          "name": "",
          "type": "address"
        },
        {
          "internalType": "address",
          "name": "",
          "type": "address"
        }
      ],
      "name": "allowance",
      "outputs": [
        {
          "internalType": "uint256",
          "name": "",
          "type": "uint256"
        }
      ],
      "stateMutability": "view",
      "type": "function"
    },
    {
      "inputs": [
        {
          "internalType": "address",
          "name": "_spender",
          "type": "address"
        },
        {
          "internalType": "uint256",
          "name": "_amount",
          "type": "uint256"
        }
      ],
      "name": "approve",
      "outputs": [
        {
          "internalType": "bool",
          "name": "",
          "type": "bool"
        }
      ],
      "stateMutability": "nonpayable",
      "type": "function"
    },
    {
      "inputs": [
        {
          "internalType": "address",
          "name": "",
          "type": "address"
        }
      ],
      "name": "balanceOf",
      "outputs": [
        {
          "internalType": "uint256",
          "name": "",
          "type": "uint256"
        }
      ],
      "stateMutability": "view",
      "type": "function"
    },
    {
      "inputs": [],
      "name": "decimals",
      "outputs": [
        {
          "internalType": "uint8",
          "name": "",
          "type": "uint8"
        }
      ],
      "stateMutability": "view",
      "type": "function"
    },
    {
      "inputs": [
        {
          "internalType": "address",
          "name": "_account",
          "type": "address"
        }
      ],
      "name": "getBalance",
      "outputs": [
        {
          "internalType": "uint256",
          "name": "",
          "type": "uint256"
        }
      ],
      "stateMutability": "view",
      "type": "function"
    },
    {
      "inputs": [
        {
          "internalType": "address",
          "name": "_to",
          "type": "address"
        },
        {
          "internalType": "uint256",
          "name": "_amount",
          "type": "uint256"
        }
      ],
      "name": "mint",
      "outputs": [],
      "stateMutability": "nonpayable",
      "type": "function"
    },
    {
      "inputs": [],
      "name": "name",
      "outputs": [
        {
          "internalType": "string",
          "name": "",
          "type": "string"
        }
      ],
      "stateMutability": "view",
      "type": "function"
    },
    {
      "inputs": [
        {
          "internalType": "address",
          "name": "_to",
          "type": "address"
        },
        {
          "internalType": "uint256",
          "name": "_amount",
          "type": "uint256"
        }
      ],
      "name": "send",
      "outputs": [],
      "stateMutability": "nonpayable",
      "type": "function"
    },
    {
      "inputs": [],
      "name": "symbol",
      "outputs": [
        {
          "internalType": "string",
          "name": "",
          "type": "string"
        }
      ],
      "stateMutability": "view",
      "type": "function"
    },
    {
      "inputs": [],
      "name": "totalSupply",
      "outputs": [
        {
          "internalType": "uint256",
          "name": "",
          "type": "uint256"
        }
      ],
      "stateMutability": "view",
      "type": "function"
    },
    {
      "inputs": [
        {
          "internalType": "address",
          "name": "_recipient",
          "type": "address"
        },
        {
          "internalType": "uint256",
          "name": "_amount",
          "type": "uint256"
        }
      ],
      "name": "transfer",
      "outputs": [
        {
          "internalType": "bool",
          "name": "",
          "type": "bool"
        }
      ],
      "stateMutability": "nonpayable",
      "type": "function"
    },
    {
      "inputs": [
        {
          "internalType": "address",
          "name": "_sender",
          "type": "address"
        },
        {
          "internalType": "address",
          "name": "_recipient",
          "type": "address"
        },
        {
          "internalType": "uint256",
          "name": "_amount",
          "type": "uint256"
        }
      ],
      "name": "transferFrom",
      "outputs": [
        {
          "internalType": "bool",
          "name": "",
          "type": "bool"
        }
      ],
      "stateMutability": "nonpayable",
      "type": "function"
    }
  ],
  "bytecode": "0x608060405260126000806101000a81548160ff021916908360ff1602179055503480156200002c57600080fd5b506040516200173838038062001738833981810160405281019062000052919062000252565b816003908162000063919062000522565b50806004908162000075919062000522565b5033600260006101000a81548173ffffffffffffffffffffffffffffffffffffffff021916908373ffffffffffffffffffffffffffffffffffffffff160217905550505062000609565b6000604051905090565b600080fd5b600080fd5b600080fd5b600080fd5b6000601f19601f8301169050919050565b7f4e487b7100000000000000000000000000000000000000000000000000000000600052604160045260246000fd5b6200012882620000dd565b810181811067ffffffffffffffff821117156200014a5762000149620000ee565b5b80604052505050565b60006200015f620000bf565b90506200016d82826200011d565b919050565b600067ffffffffffffffff82111562000190576200018f620000ee565b5b6200019b82620000dd565b9050602081019050919050565b60005b83811015620001c8578082015181840152602081019050620001ab565b60008484015250505050565b6000620001eb620001e58462000172565b62000153565b9050828152602081018484840111156200020a5762000209620000d8565b5b62000217848285620001a8565b509392505050565b600082601f830112620002375762000236620000d3565b5b815162000249848260208601620001d4565b91505092915050565b600080604083850312156200026c576200026b620000c9565b5b600083015167ffffffffffffffff8111156200028d576200028c620000ce565b5b6200029b858286016200021f565b925050602083015167ffffffffffffffff811115620002bf57620002be620000ce565b5b620002cd858286016200021f565b9150509250929050565b600081519050919050565b7f4e487b7100000000000000000000000000000000000000000000000000000000600052602260045260246000fd5b600060028204905060018216806200032a57607f821691505b60208210810362000340576200033f620002e2565b5b50919050565b60008190508160005260206000209050919050565b60006020601f8301049050919050565b600082821b905092915050565b600060088302620003aa7fffffffffffffffffffffffffffffffffffffffffffffffffffffffffffffffff826200036b565b620003b686836200036b565b95508019841693508086168417925050509392505050565b6000819050919050565b6000819050919050565b600062000403620003fd620003f784620003ce565b620003d8565b620003ce565b9050919050565b6000819050919050565b6200041f83620003e2565b620004376200042e826200040a565b84845462000378565b825550505050565b600090565b6200044e6200043f565b6200045b81848462000414565b505050565b5b8181101562000483576200047760008262000444565b60018101905062000461565b5050565b601f821115620004d2576200049c8162000346565b620004a7846200035b565b81016020851015620004b7578190505b620004cf620004c6856200035b565b83018262000460565b50505b505050565b600082821c905092915050565b6000620004f760001984600802620004d7565b1980831691505092915050565b6000620005128383620004e4565b9150826002028217905092915050565b6200052d82620002d7565b67ffffffffffffffff811115620005495762000548620000ee565b5b62000555825462000311565b6200056282828562000487565b600060209050601f8311600181146200059a576000841562000585578287015190505b62000591858262000504565b86555062000601565b601f198416620005aa8662000346565b60005b82811015620005d457848901518255600182019150602085019450602081019050620005ad565b86831015620005f45784890151620005f0601f891682620004e4565b8355505b6001600288020188555050505b505050505050565b61111f80620006196000396000f3fe608060405234801561001057600080fd5b50600436106100b45760003560e01c806370a082311161007157806370a082311461018f57806395d89b41146101bf578063a9059cbb146101dd578063d0679d341461020d578063dd62ed3e14610229578063f8b2cb4f14610259576100b4565b806306fdde03146100b9578063095ea7b3146100d757806318160ddd1461010757806323b872dd14610125578063313ce5671461015557806340c10f1914610173575b600080fd5b6100c1610289565b6040516100ce9190610c90565b60405180910390f35b6100f160048036038101906100ec9190610d4b565b610317565b6040516100fe9190610da6565b60405180910390f35b61010f610409565b60405161011c9190610dd0565b60405180910390f35b61013f600480360381019061013a9190610deb565b61040f565b60405161014c9190610da6565b60405180910390f35b61015d610642565b60405161016a9190610e5a565b60405180910390f35b61018d60048036038101906101889190610d4b565b610653565b005b6101a960048036038101906101a49190610e75565b61078f565b6040516101b69190610dd0565b60405180910390f35b6101c76107a7565b6040516101d49190610c90565b60405180910390f35b6101f760048036038101906101f29190610d4b565b610835565b6040516102049190610da6565b60405180910390f35b61022760048036038101906102229190610d4b565b6109d4565b005b610243600480360381019061023e9190610ea2565b610a64565b6040516102509190610dd0565b60405180910390f35b610273600480360381019061026e9190610e75565b610a89565b6040516102809190610dd0565b60405180910390f35b6003805461029690610f11565b80601f01602080910402602001604051908101604052809291908181526020018280546102c290610f11565b801561030f5780601f106102e45761010080835404028352916020019161030f565b820191906000526020600020905b8154815290600101906020018083116102f257829003601f168201915b505050505081565b600081600660003373ffffffffffffffffffffffffffffffffffffffff1673ffffffffffffffffffffffffffffffffffffffff16815260200190815260200160002060008573ffffffffffffffffffffffffffffffffffffffff1673ffffffffffffffffffffffffffffffffffffffff168152602001908152602001600020819055508273ffffffffffffffffffffffffffffffffffffffff163373ffffffffffffffffffffffffffffffffffffffff167f8c5be1e5ebec7d5bd14f71427d1e84f3dd0314c0f7b2291e5b200ac8c7c3b925846040516103f79190610dd0565b60405180910390a36001905092915050565b60015481565b600081600560003373ffffffffffffffffffffffffffffffffffffffff1673ffffffffffffffffffffffffffffffffffffffff168152602001908152602001600020541015610493576040517f08c379a000000000000000000000000000000000000000000000000000000000815260040161048a90610f8e565b60405180910390fd5b81600660008673ffffffffffffffffffffffffffffffffffffffff1673ffffffffffffffffffffffffffffffffffffffff16815260200190815260200160002060003373ffffffffffffffffffffffffffffffffffffffff1673ffffffffffffffffffffffffffffffffffffffff168152602001908152602001600020600082825461051f9190610fdd565b9250508190555081600560008673ffffffffffffffffffffffffffffffffffffffff1673ffffffffffffffffffffffffffffffffffffffff16815260200190815260200160002060008282546105759190610fdd565b9250508190555081600560008573ffffffffffffffffffffffffffffffffffffffff1673ffffffffffffffffffffffffffffffffffffffff16815260200190815260200160002060008282546105cb9190611011565b925050819055508273ffffffffffffffffffffffffffffffffffffffff168473ffffffffffffffffffffffffffffffffffffffff167fddf252ad1be2c89b69c2b068fc378daa952ba7f163c4a11628f55a4df523b3ef8460405161062f9190610dd0565b60405180910390a3600190509392505050565b60008054906101000a900460ff1681565b600260009054906101000a900473ffffffffffffffffffffffffffffffffffffffff1673ffffffffffffffffffffffffffffffffffffffff163373ffffffffffffffffffffffffffffffffffffffff16146106e3576040517f08c379a00000000000000000000000000000000000000000000000000000000081526004016106da90611091565b60405180910390fd5b80600560008473ffffffffffffffffffffffffffffffffffffffff1673ffffffffffffffffffffffffffffffffffffffff16815260200190815260200160002060008282546107329190611011565b92505081905550806001600082825461074b9190611011565b925050819055507f0f6798a560793a54c3bcfe86a93cde1e73087d944c0ea20544137d412139688582826040516107839291906110c0565b60405180910390a15050565b60056020528060005260406000206000915090505481565b600480546107b490610f11565b80601f01602080910402602001604051908101604052809291908181526020018280546107e090610f11565b801561082d5780601f106108025761010080835404028352916020019161082d565b820191906000526020600020905b81548152906001019060200180831161081057829003601f168201915b505050505081565b600081600560003373ffffffffffffffffffffffffffffffffffffffff1673ffffffffffffffffffffffffffffffffffffffff1681526020019081526020016000205410156108b9576040517f08c379a00000000000000000000000000000000000000000000000000000000081526004016108b090610f8e565b60405180910390fd5b81600560003373ffffffffffffffffffffffffffffffffffffffff1673ffffffffffffffffffffffffffffffffffffffff16815260200190815260200160002060008282546109089190610fdd565b9250508190555081600560008573ffffffffffffffffffffffffffffffffffffffff1673ffffffffffffffffffffffffffffffffffffffff168152602001908152602001600020600082825461095e9190611011565b925050819055508273ffffffffffffffffffffffffffffffffffffffff163373ffffffffffffffffffffffffffffffffffffffff167fddf252ad1be2c89b69c2b068fc378daa952ba7f163c4a11628f55a4df523b3ef846040516109c29190610dd0565b60405180910390a36001905092915050565b80600560003373ffffffffffffffffffffffffffffffffffffffff1673ffffffffffffffffffffffffffffffffffffffff168152602001908152602001600020541015610a56576040517f08c379a0000000000000000000000000000000000000000000000000000000008152600401610a4d90610f8e565b60405180910390fd5b610a608282610ad2565b5050565b6006602052816000526040600020602052806000526040600020600091509150505481565b6000600560008373ffffffffffffffffffffffffffffffffffffffff1673ffffffffffffffffffffffffffffffffffffffff168152602001908152602001600020549050919050565b80600560003373ffffffffffffffffffffffffffffffffffffffff1673ffffffffffffffffffffffffffffffffffffffff168152602001908152602001600020541015610b54576040517f08c379a0000000000000000000000000000000000000000000000000000000008152600401610b4b90610f8e565b60405180910390fd5b80600560003373ffffffffffffffffffffffffffffffffffffffff1673ffffffffffffffffffffffffffffffffffffffff1681526020019081526020016000206000828254610ba39190610fdd565b925050819055508060016000828254610bbc9190610fdd565b925050819055507fcc16f5dbb4873280815c1ee09dbd06736cffcc184412cf7a71a0fdb75d397ca58282604051610bf49291906110c0565b60405180910390a15050565b600081519050919050565b600082825260208201905092915050565b60005b83811015610c3a578082015181840152602081019050610c1f565b60008484015250505050565b6000601f19601f8301169050919050565b6000610c6282610c00565b610c6c8185610c0b565b9350610c7c818560208601610c1c565b610c8581610c46565b840191505092915050565b60006020820190508181036000830152610caa8184610c57565b905092915050565b600080fd5b600073ffffffffffffffffffffffffffffffffffffffff82169050919050565b6000610ce282610cb7565b9050919050565b610cf281610cd7565b8114610cfd57600080fd5b50565b600081359050610d0f81610ce9565b92915050565b6000819050919050565b610d2881610d15565b8114610d3357600080fd5b50565b600081359050610d4581610d1f565b92915050565b60008060408385031215610d6257610d61610cb2565b5b6000610d7085828601610d00565b9250506020610d8185828601610d36565b9150509250929050565b60008115159050919050565b610da081610d8b565b82525050565b6000602082019050610dbb6000830184610d97565b92915050565b610dca81610d15565b82525050565b6000602082019050610de56000830184610dc1565b92915050565b600080600060608486031215610e0457610e03610cb2565b5b6000610e1286828701610d00565b9350506020610e2386828701610d00565b9250506040610e3486828701610d36565b9150509250925092565b600060ff82169050919050565b610e5481610e3e565b82525050565b6000602082019050610e6f6000830184610e4b565b92915050565b600060208284031215610e8b57610e8a610cb2565b5b6000610e9984828501610d00565b91505092915050565b60008060408385031215610eb957610eb8610cb2565b5b6000610ec785828601610d00565b9250506020610ed885828601610d00565b9150509250929050565b7f4e487b7100000000000000000000000000000000000000000000000000000000600052602260045260246000fd5b60006002820490506001821680610f2957607f821691505b602082108103610f3c57610f3b610ee2565b5b50919050565b7f4530320000000000000000000000000000000000000000000000000000000000600082015250565b6000610f78600383610c0b565b9150610f8382610f42565b602082019050919050565b60006020820190508181036000830152610fa781610f6b565b9050919050565b7f4e487b7100000000000000000000000000000000000000000000000000000000600052601160045260246000fd5b6000610fe882610d15565b9150610ff383610d15565b925082820390508181111561100b5761100a610fae565b5b92915050565b600061101c82610d15565b915061102783610d15565b925082820190508082111561103f5761103e610fae565b5b92915050565b7f4530310000000000000000000000000000000000000000000000000000000000600082015250565b600061107b600383610c0b565b915061108682611045565b602082019050919050565b600060208201905081810360008301526110aa8161106e565b9050919050565b6110ba81610cd7565b82525050565b60006040820190506110d560008301856110b1565b6110e26020830184610dc1565b939250505056fea26469706673582212209f0eb041416cf5d3891b392cceb8438b8b23b13594fa4630279e1cd00899666364736f6c63430008110033",
  "linkReferences": {},
  "deployedLinkReferences": {}
}