{
  "_format": "hh-sol-artifact-1",
  "contractName": "BridgeBsc",
  "sourceName": "contracts/BridgeBsc.sol",
  "abi": [
    {
      "inputs": [
        {
          "internalType": "string",
          "name": "_name",
          "type": "string"
        },
        {
          "internalType": "string",
          "name": "_symbol",
          "type": "string"
        }
      ],
      "stateMutability": "nonpayable",
      "type": "constructor"
    },
    {
      "anonymous": false,
      "inputs": [
        {
          "indexed": true,
          "internalType": "address",
          "name": "owner",
          "type": "address"
        },
        {
          "indexed": true,
          "internalType": "address",
          "name": "spender",
          "type": "address"
        },
        {
          "indexed": false,
          "internalType": "uint256",
          "name": "value",
          "type": "uint256"
        }
      ],
      "name": "Approval",
      "type": "event"
    },
    {
      "anonymous": false,
      "inputs": [
        {
          "indexed": false,
          "internalType": "uint256",
          "name": "amount",
          "type": "uint256"
        }
      ],
      "name": "Burn",
      "type": "event"
    },
    {
      "anonymous": false,
      "inputs": [
        {
          "indexed": false,
          "internalType": "address",
          "name": "to",
          "type": "address"
        },
        {
          "indexed": false,
          "internalType": "uint256",
          "name": "amount",
          "type": "uint256"
        }
      ],
      "name": "BurnWrapped",
      "type": "event"
    },
    {
      "anonymous": false,
      "inputs": [
        {
          "indexed": false,
          "internalType": "uint256",
          "name": "amount",
          "type": "uint256"
        }
      ],
      "name": "Mint",
      "type": "event"
    },
    {
      "anonymous": false,
      "inputs": [
        {
          "indexed": false,
          "internalType": "address",
          "name": "to",
          "type": "address"
        },
        {
          "indexed": false,
          "internalType": "uint256",
          "name": "amount",
          "type": "uint256"
        }
      ],
      "name": "MintWrapped",
      "type": "event"
    },
    {
      "anonymous": false,
      "inputs": [
        {
          "indexed": false,
          "internalType": "address",
          "name": "new_owner",
          "type": "address"
        }
      ],
      "name": "OwnershipChanged",
      "type": "event"
    },
    {
      "anonymous": false,
      "inputs": [
        {
          "indexed": true,
          "internalType": "address",
          "name": "from",
          "type": "address"
        },
        {
          "indexed": true,
          "internalType": "address",
          "name": "to",
          "type": "address"
        },
        {
          "indexed": false,
          "internalType": "uint256",
          "name": "value",
          "type": "uint256"
        }
      ],
      "name": "Transfer",
      "type": "event"
    },
    {
      "inputs": [
        {
          "internalType": "address",
          "name": "",
          "type": "address"
        },
        {
          "internalType": "address",
          "name": "",
          "type": "address"
        }
      ],
      "name": "allowance",
      "outputs": [
        {
          "internalType": "uint256",
          "name": "",
          "type": "uint256"
        }
      ],
      "stateMutability": "view",
      "type": "function"
    },
    {
      "inputs": [
        {
          "internalType": "address",
          "name": "_spender",
          "type": "address"
        },
        {
          "internalType": "uint256",
          "name": "_amount",
          "type": "uint256"
        }
      ],
      "name": "approve",
      "outputs": [
        {
          "internalType": "bool",
          "name": "",
          "type": "bool"
        }
      ],
      "stateMutability": "nonpayable",
      "type": "function"
    },
    {
      "inputs": [
        {
          "internalType": "address",
          "name": "",
          "type": "address"
        }
      ],
      "name": "balanceOf",
      "outputs": [
        {
          "internalType": "uint256",
          "name": "",
          "type": "uint256"
        }
      ],
      "stateMutability": "view",
      "type": "function"
    },
    {
      "inputs": [
        {
          "internalType": "uint256",
          "name": "_amount",
          "type": "uint256"
        }
      ],
      "name": "burn",
      "outputs": [],
      "stateMutability": "nonpayable",
      "type": "function"
    },
    {
      "inputs": [
        {
          "internalType": "address",
          "name": "_to",
          "type": "address"
        },
        {
          "internalType": "uint256",
          "name": "_amount",
          "type": "uint256"
        }
      ],
      "name": "burn_wrapped",
      "outputs": [],
      "stateMutability": "nonpayable",
      "type": "function"
    },
    {
      "inputs": [],
      "name": "decimals",
      "outputs": [
        {
          "internalType": "uint8",
          "name": "",
          "type": "uint8"
        }
      ],
      "stateMutability": "view",
      "type": "function"
    },
    {
      "inputs": [
        {
          "internalType": "address",
          "name": "_account",
          "type": "address"
        }
      ],
      "name": "getBalance",
      "outputs": [
        {
          "internalType": "uint256",
          "name": "",
          "type": "uint256"
        }
      ],
      "stateMutability": "view",
      "type": "function"
    },
    {
      "inputs": [
        {
          "internalType": "uint256",
          "name": "_amount",
          "type": "uint256"
        }
      ],
      "name": "mint",
      "outputs": [],
      "stateMutability": "nonpayable",
      "type": "function"
    },
    {
      "inputs": [
        {
          "internalType": "address",
          "name": "_to",
          "type": "address"
        },
        {
          "internalType": "uint256",
          "name": "_amount",
          "type": "uint256"
        }
      ],
      "name": "mint_wrapped",
      "outputs": [],
      "stateMutability": "nonpayable",
      "type": "function"
    },
    {
      "inputs": [],
      "name": "name",
      "outputs": [
        {
          "internalType": "string",
          "name": "",
          "type": "string"
        }
      ],
      "stateMutability": "view",
      "type": "function"
    },
    {
      "inputs": [],
      "name": "symbol",
      "outputs": [
        {
          "internalType": "string",
          "name": "",
          "type": "string"
        }
      ],
      "stateMutability": "view",
      "type": "function"
    },
    {
      "inputs": [],
      "name": "totalSupply",
      "outputs": [
        {
          "internalType": "uint256",
          "name": "",
          "type": "uint256"
        }
      ],
      "stateMutability": "view",
      "type": "function"
    },
    {
      "inputs": [
        {
          "internalType": "address",
          "name": "_recipient",
          "type": "address"
        },
        {
          "internalType": "uint256",
          "name": "_amount",
          "type": "uint256"
        }
      ],
      "name": "transfer",
      "outputs": [
        {
          "internalType": "bool",
          "name": "",
          "type": "bool"
        }
      ],
      "stateMutability": "nonpayable",
      "type": "function"
    },
    {
      "inputs": [
        {
          "internalType": "address",
          "name": "_sender",
          "type": "address"
        },
        {
          "internalType": "address",
          "name": "_recipient",
          "type": "address"
        },
        {
          "internalType": "uint256",
          "name": "_amount",
          "type": "uint256"
        }
      ],
      "name": "transferFrom",
      "outputs": [
        {
          "internalType": "bool",
          "name": "",
          "type": "bool"
        }
      ],
      "stateMutability": "nonpayable",
      "type": "function"
    },
    {
      "inputs": [
        {
          "internalType": "address",
          "name": "new_owner",
          "type": "address"
        }
      ],
      "name": "transfer_ownership",
      "outputs": [],
      "stateMutability": "nonpayable",
      "type": "function"
    }
  ],
  "bytecode": "0x608060405260126000806101000a81548160ff021916908360ff1602179055503480156200002c57600080fd5b5060405162001b0438038062001b04833981810160405281019062000052919062000252565b816003908162000063919062000522565b50806004908162000075919062000522565b5033600260006101000a81548173ffffffffffffffffffffffffffffffffffffffff021916908373ffffffffffffffffffffffffffffffffffffffff160217905550505062000609565b6000604051905090565b600080fd5b600080fd5b600080fd5b600080fd5b6000601f19601f8301169050919050565b7f4e487b7100000000000000000000000000000000000000000000000000000000600052604160045260246000fd5b6200012882620000dd565b810181811067ffffffffffffffff821117156200014a5762000149620000ee565b5b80604052505050565b60006200015f620000bf565b90506200016d82826200011d565b919050565b600067ffffffffffffffff82111562000190576200018f620000ee565b5b6200019b82620000dd565b9050602081019050919050565b60005b83811015620001c8578082015181840152602081019050620001ab565b60008484015250505050565b6000620001eb620001e58462000172565b62000153565b9050828152602081018484840111156200020a5762000209620000d8565b5b62000217848285620001a8565b509392505050565b600082601f830112620002375762000236620000d3565b5b815162000249848260208601620001d4565b91505092915050565b600080604083850312156200026c576200026b620000c9565b5b600083015167ffffffffffffffff8111156200028d576200028c620000ce565b5b6200029b858286016200021f565b925050602083015167ffffffffffffffff811115620002bf57620002be620000ce565b5b620002cd858286016200021f565b9150509250929050565b600081519050919050565b7f4e487b7100000000000000000000000000000000000000000000000000000000600052602260045260246000fd5b600060028204905060018216806200032a57607f821691505b60208210810362000340576200033f620002e2565b5b50919050565b60008190508160005260206000209050919050565b60006020601f8301049050919050565b600082821b905092915050565b600060088302620003aa7fffffffffffffffffffffffffffffffffffffffffffffffffffffffffffffffff826200036b565b620003b686836200036b565b95508019841693508086168417925050509392505050565b6000819050919050565b6000819050919050565b600062000403620003fd620003f784620003ce565b620003d8565b620003ce565b9050919050565b6000819050919050565b6200041f83620003e2565b620004376200042e826200040a565b84845462000378565b825550505050565b600090565b6200044e6200043f565b6200045b81848462000414565b505050565b5b8181101562000483576200047760008262000444565b60018101905062000461565b5050565b601f821115620004d2576200049c8162000346565b620004a7846200035b565b81016020851015620004b7578190505b620004cf620004c6856200035b565b83018262000460565b50505b505050565b600082821c905092915050565b6000620004f760001984600802620004d7565b1980831691505092915050565b6000620005128383620004e4565b9150826002028217905092915050565b6200052d82620002d7565b67ffffffffffffffff811115620005495762000548620000ee565b5b62000555825462000311565b6200056282828562000487565b600060209050601f8311600181146200059a576000841562000585578287015190505b62000591858262000504565b86555062000601565b601f198416620005aa8662000346565b60005b82811015620005d457848901518255600182019150602085019450602081019050620005ad565b86831015620005f45784890151620005f0601f891682620004e4565b8355505b6001600288020188555050505b505050505050565b6114eb80620006196000396000f3fe608060405234801561001057600080fd5b50600436106100f55760003560e01c806379d352f711610097578063c286313a11610066578063c286313a14610286578063dd62ed3e146102a2578063f0350c04146102d2578063f8b2cb4f146102ee576100f5565b806379d352f71461020057806395d89b411461021c578063a0712d681461023a578063a9059cbb14610256576100f5565b806323b872dd116100d357806323b872dd14610166578063313ce5671461019657806342966c68146101b457806370a08231146101d0576100f5565b806306fdde03146100fa578063095ea7b31461011857806318160ddd14610148575b600080fd5b61010261031e565b60405161010f9190610fa8565b60405180910390f35b610132600480360381019061012d9190611063565b6103ac565b60405161013f91906110be565b60405180910390f35b61015061049e565b60405161015d91906110e8565b60405180910390f35b610180600480360381019061017b9190611103565b6104a4565b60405161018d91906110be565b60405180910390f35b61019e6106d7565b6040516101ab9190611172565b60405180910390f35b6101ce60048036038101906101c9919061118d565b6106e8565b005b6101ea60048036038101906101e591906111ba565b6107cb565b6040516101f791906110e8565b60405180910390f35b61021a60048036038101906102159190611063565b6107e3565b005b610224610962565b6040516102319190610fa8565b60405180910390f35b610254600480360381019061024f919061118d565b6109f0565b005b610270600480360381019061026b9190611063565b610ad3565b60405161027d91906110be565b60405180910390f35b6102a0600480360381019061029b9190611063565b610c72565b005b6102bc60048036038101906102b791906111e7565b610d9f565b6040516102c991906110e8565b60405180910390f35b6102ec60048036038101906102e791906111ba565b610dc4565b005b610308600480360381019061030391906111ba565b610ecf565b60405161031591906110e8565b60405180910390f35b6003805461032b90611256565b80601f016020809104026020016040519081016040528092919081815260200182805461035790611256565b80156103a45780601f10610379576101008083540402835291602001916103a4565b820191906000526020600020905b81548152906001019060200180831161038757829003601f168201915b505050505081565b600081600660003373ffffffffffffffffffffffffffffffffffffffff1673ffffffffffffffffffffffffffffffffffffffff16815260200190815260200160002060008573ffffffffffffffffffffffffffffffffffffffff1673ffffffffffffffffffffffffffffffffffffffff168152602001908152602001600020819055508273ffffffffffffffffffffffffffffffffffffffff163373ffffffffffffffffffffffffffffffffffffffff167f8c5be1e5ebec7d5bd14f71427d1e84f3dd0314c0f7b2291e5b200ac8c7c3b9258460405161048c91906110e8565b60405180910390a36001905092915050565b60015481565b600081600560003373ffffffffffffffffffffffffffffffffffffffff1673ffffffffffffffffffffffffffffffffffffffff168152602001908152602001600020541015610528576040517f08c379a000000000000000000000000000000000000000000000000000000000815260040161051f906112d3565b60405180910390fd5b81600660008673ffffffffffffffffffffffffffffffffffffffff1673ffffffffffffffffffffffffffffffffffffffff16815260200190815260200160002060003373ffffffffffffffffffffffffffffffffffffffff1673ffffffffffffffffffffffffffffffffffffffff16815260200190815260200160002060008282546105b49190611322565b9250508190555081600560008673ffffffffffffffffffffffffffffffffffffffff1673ffffffffffffffffffffffffffffffffffffffff168152602001908152602001600020600082825461060a9190611322565b9250508190555081600560008573ffffffffffffffffffffffffffffffffffffffff1673ffffffffffffffffffffffffffffffffffffffff16815260200190815260200160002060008282546106609190611356565b925050819055508273ffffffffffffffffffffffffffffffffffffffff168473ffffffffffffffffffffffffffffffffffffffff167fddf252ad1be2c89b69c2b068fc378daa952ba7f163c4a11628f55a4df523b3ef846040516106c491906110e8565b60405180910390a3600190509392505050565b60008054906101000a900460ff1681565b600260009054906101000a900473ffffffffffffffffffffffffffffffffffffffff1673ffffffffffffffffffffffffffffffffffffffff163373ffffffffffffffffffffffffffffffffffffffff1614610778576040517f08c379a000000000000000000000000000000000000000000000000000000000815260040161076f906113d6565b60405180910390fd5b806001600082825461078a9190611322565b925050819055507fb90306ad06b2a6ff86ddc9327db583062895ef6540e62dc50add009db5b356eb816040516107c091906110e8565b60405180910390a150565b60056020528060005260406000206000915090505481565b600260009054906101000a900473ffffffffffffffffffffffffffffffffffffffff1673ffffffffffffffffffffffffffffffffffffffff163373ffffffffffffffffffffffffffffffffffffffff1614610873576040517f08c379a000000000000000000000000000000000000000000000000000000000815260040161086a906113d6565b60405180910390fd5b600081116108b6576040517f08c379a00000000000000000000000000000000000000000000000000000000081526004016108ad90611442565b60405180910390fd5b80600560008473ffffffffffffffffffffffffffffffffffffffff1673ffffffffffffffffffffffffffffffffffffffff16815260200190815260200160002060008282546109059190611356565b92505081905550806001600082825461091e9190611356565b925050819055507fffd9a11a601520617b0a7eb64dab5af6ae8aa8591b5d089651de1009637c18b98282604051610956929190611471565b60405180910390a15050565b6004805461096f90611256565b80601f016020809104026020016040519081016040528092919081815260200182805461099b90611256565b80156109e85780601f106109bd576101008083540402835291602001916109e8565b820191906000526020600020905b8154815290600101906020018083116109cb57829003601f168201915b505050505081565b600260009054906101000a900473ffffffffffffffffffffffffffffffffffffffff1673ffffffffffffffffffffffffffffffffffffffff163373ffffffffffffffffffffffffffffffffffffffff1614610a80576040517f08c379a0000000000000000000000000000000000000000000000000000000008152600401610a77906113d6565b60405180910390fd5b8060016000828254610a929190611356565b925050819055507f07883703ed0e86588a40d76551c92f8a4b329e3bf19765e0e6749473c1a8466581604051610ac891906110e8565b60405180910390a150565b600081600560003373ffffffffffffffffffffffffffffffffffffffff1673ffffffffffffffffffffffffffffffffffffffff168152602001908152602001600020541015610b57576040517f08c379a0000000000000000000000000000000000000000000000000000000008152600401610b4e906112d3565b60405180910390fd5b81600560003373ffffffffffffffffffffffffffffffffffffffff1673ffffffffffffffffffffffffffffffffffffffff1681526020019081526020016000206000828254610ba69190611322565b9250508190555081600560008573ffffffffffffffffffffffffffffffffffffffff1673ffffffffffffffffffffffffffffffffffffffff1681526020019081526020016000206000828254610bfc9190611356565b925050819055508273ffffffffffffffffffffffffffffffffffffffff163373ffffffffffffffffffffffffffffffffffffffff167fddf252ad1be2c89b69c2b068fc378daa952ba7f163c4a11628f55a4df523b3ef84604051610c6091906110e8565b60405180910390a36001905092915050565b80600560003373ffffffffffffffffffffffffffffffffffffffff1673ffffffffffffffffffffffffffffffffffffffff168152602001908152602001600020541015610cf4576040517f08c379a0000000000000000000000000000000000000000000000000000000008152600401610ceb906112d3565b60405180910390fd5b80600560003373ffffffffffffffffffffffffffffffffffffffff1673ffffffffffffffffffffffffffffffffffffffff1681526020019081526020016000206000828254610d439190611322565b925050819055508060016000828254610d5c9190611322565b925050819055507e08c1d561248cee295217d8d47155a3f7505bf828da61fc87f04547104dfb188282604051610d93929190611471565b60405180910390a15050565b6006602052816000526040600020602052806000526040600020600091509150505481565b600260009054906101000a900473ffffffffffffffffffffffffffffffffffffffff1673ffffffffffffffffffffffffffffffffffffffff163373ffffffffffffffffffffffffffffffffffffffff1614610e54576040517f08c379a0000000000000000000000000000000000000000000000000000000008152600401610e4b906113d6565b60405180910390fd5b80600260006101000a81548173ffffffffffffffffffffffffffffffffffffffff021916908373ffffffffffffffffffffffffffffffffffffffff1602179055507f595ee9ffef04d4d652b768860c56905a48f5ab79124bb3b2279df1885536991d81604051610ec4919061149a565b60405180910390a150565b6000600560008373ffffffffffffffffffffffffffffffffffffffff1673ffffffffffffffffffffffffffffffffffffffff168152602001908152602001600020549050919050565b600081519050919050565b600082825260208201905092915050565b60005b83811015610f52578082015181840152602081019050610f37565b60008484015250505050565b6000601f19601f8301169050919050565b6000610f7a82610f18565b610f848185610f23565b9350610f94818560208601610f34565b610f9d81610f5e565b840191505092915050565b60006020820190508181036000830152610fc28184610f6f565b905092915050565b600080fd5b600073ffffffffffffffffffffffffffffffffffffffff82169050919050565b6000610ffa82610fcf565b9050919050565b61100a81610fef565b811461101557600080fd5b50565b60008135905061102781611001565b92915050565b6000819050919050565b6110408161102d565b811461104b57600080fd5b50565b60008135905061105d81611037565b92915050565b6000806040838503121561107a57611079610fca565b5b600061108885828601611018565b92505060206110998582860161104e565b9150509250929050565b60008115159050919050565b6110b8816110a3565b82525050565b60006020820190506110d360008301846110af565b92915050565b6110e28161102d565b82525050565b60006020820190506110fd60008301846110d9565b92915050565b60008060006060848603121561111c5761111b610fca565b5b600061112a86828701611018565b935050602061113b86828701611018565b925050604061114c8682870161104e565b9150509250925092565b600060ff82169050919050565b61116c81611156565b82525050565b60006020820190506111876000830184611163565b92915050565b6000602082840312156111a3576111a2610fca565b5b60006111b18482850161104e565b91505092915050565b6000602082840312156111d0576111cf610fca565b5b60006111de84828501611018565b91505092915050565b600080604083850312156111fe576111fd610fca565b5b600061120c85828601611018565b925050602061121d85828601611018565b9150509250929050565b7f4e487b7100000000000000000000000000000000000000000000000000000000600052602260045260246000fd5b6000600282049050600182168061126e57607f821691505b60208210810361128157611280611227565b5b50919050565b7f4530320000000000000000000000000000000000000000000000000000000000600082015250565b60006112bd600383610f23565b91506112c882611287565b602082019050919050565b600060208201905081810360008301526112ec816112b0565b9050919050565b7f4e487b7100000000000000000000000000000000000000000000000000000000600052601160045260246000fd5b600061132d8261102d565b91506113388361102d565b92508282039050818111156113505761134f6112f3565b5b92915050565b60006113618261102d565b915061136c8361102d565b9250828201905080821115611384576113836112f3565b5b92915050565b7f4530310000000000000000000000000000000000000000000000000000000000600082015250565b60006113c0600383610f23565b91506113cb8261138a565b602082019050919050565b600060208201905081810360008301526113ef816113b3565b9050919050565b7f4530330000000000000000000000000000000000000000000000000000000000600082015250565b600061142c600383610f23565b9150611437826113f6565b602082019050919050565b6000602082019050818103600083015261145b8161141f565b9050919050565b61146b81610fef565b82525050565b60006040820190506114866000830185611462565b61149360208301846110d9565b9392505050565b60006020820190506114af6000830184611462565b9291505056fea2646970667358221220040916b957e302358069c44efc85ad4329d9e0451b89ce0dff67f10c0390770664736f6c63430008110033",
  "linkReferences": {},
  "deployedLinkReferences": {}
}