{
  "_format": "hh-sol-artifact-1",
  "contractName": "BridgeBsc",
  "sourceName": "contracts/BridgeBsc.sol",
  "abi": [
    {
      "inputs": [
        {
          "internalType": "string",
          "name": "_name",
          "type": "string"
        },
        {
          "internalType": "string",
          "name": "_symbol",
          "type": "string"
        }
      ],
      "stateMutability": "nonpayable",
      "type": "constructor"
    },
    {
      "anonymous": false,
      "inputs": [
        {
          "indexed": true,
          "internalType": "address",
          "name": "owner",
          "type": "address"
        },
        {
          "indexed": true,
          "internalType": "address",
          "name": "spender",
          "type": "address"
        },
        {
          "indexed": false,
          "internalType": "uint256",
          "name": "value",
          "type": "uint256"
        }
      ],
      "name": "Approval",
      "type": "event"
    },
    {
      "anonymous": false,
      "inputs": [
        {
          "indexed": false,
          "internalType": "address",
          "name": "to",
          "type": "address"
        },
        {
          "indexed": false,
          "internalType": "uint256",
          "name": "amount",
          "type": "uint256"
        }
      ],
      "name": "Burn",
      "type": "event"
    },
    {
      "anonymous": false,
      "inputs": [
        {
          "indexed": false,
          "internalType": "address",
          "name": "to",
          "type": "address"
        },
        {
          "indexed": false,
          "internalType": "uint256",
          "name": "amount",
          "type": "uint256"
        }
      ],
      "name": "Mint",
      "type": "event"
    },
    {
      "anonymous": false,
      "inputs": [
        {
          "indexed": true,
          "internalType": "address",
          "name": "from",
          "type": "address"
        },
        {
          "indexed": true,
          "internalType": "address",
          "name": "to",
          "type": "address"
        },
        {
          "indexed": false,
          "internalType": "uint256",
          "name": "value",
          "type": "uint256"
        }
      ],
      "name": "Transfer",
      "type": "event"
    },
    {
      "inputs": [
        {
          "internalType": "address",
          "name": "",
          "type": "address"
        },
        {
          "internalType": "address",
          "name": "",
          "type": "address"
        }
      ],
      "name": "allowance",
      "outputs": [
        {
          "internalType": "uint256",
          "name": "",
          "type": "uint256"
        }
      ],
      "stateMutability": "view",
      "type": "function"
    },
    {
      "inputs": [
        {
          "internalType": "address",
          "name": "spender",
          "type": "address"
        },
        {
          "internalType": "uint256",
          "name": "amount",
          "type": "uint256"
        }
      ],
      "name": "approve",
      "outputs": [
        {
          "internalType": "bool",
          "name": "",
          "type": "bool"
        }
      ],
      "stateMutability": "nonpayable",
      "type": "function"
    },
    {
      "inputs": [
        {
          "internalType": "address",
          "name": "",
          "type": "address"
        }
      ],
      "name": "balanceOf",
      "outputs": [
        {
          "internalType": "uint256",
          "name": "",
          "type": "uint256"
        }
      ],
      "stateMutability": "view",
      "type": "function"
    },
    {
      "inputs": [],
      "name": "decimals",
      "outputs": [
        {
          "internalType": "uint8",
          "name": "",
          "type": "uint8"
        }
      ],
      "stateMutability": "view",
      "type": "function"
    },
    {
      "inputs": [
        {
          "internalType": "address",
          "name": "account",
          "type": "address"
        }
      ],
      "name": "getBalance",
      "outputs": [
        {
          "internalType": "uint256",
          "name": "",
          "type": "uint256"
        }
      ],
      "stateMutability": "view",
      "type": "function"
    },
    {
      "inputs": [
        {
          "internalType": "address",
          "name": "to",
          "type": "address"
        },
        {
          "internalType": "uint256",
          "name": "amount",
          "type": "uint256"
        }
      ],
      "name": "mint",
      "outputs": [],
      "stateMutability": "nonpayable",
      "type": "function"
    },
    {
      "inputs": [],
      "name": "name",
      "outputs": [
        {
          "internalType": "string",
          "name": "",
          "type": "string"
        }
      ],
      "stateMutability": "view",
      "type": "function"
    },
    {
      "inputs": [
        {
          "internalType": "address",
          "name": "to",
          "type": "address"
        },
        {
          "internalType": "uint256",
          "name": "amount",
          "type": "uint256"
        }
      ],
      "name": "send",
      "outputs": [],
      "stateMutability": "nonpayable",
      "type": "function"
    },
    {
      "inputs": [],
      "name": "symbol",
      "outputs": [
        {
          "internalType": "string",
          "name": "",
          "type": "string"
        }
      ],
      "stateMutability": "view",
      "type": "function"
    },
    {
      "inputs": [],
      "name": "totalSupply",
      "outputs": [
        {
          "internalType": "uint256",
          "name": "",
          "type": "uint256"
        }
      ],
      "stateMutability": "view",
      "type": "function"
    },
    {
      "inputs": [
        {
          "internalType": "address",
          "name": "recipient",
          "type": "address"
        },
        {
          "internalType": "uint256",
          "name": "amount",
          "type": "uint256"
        }
      ],
      "name": "transfer",
      "outputs": [
        {
          "internalType": "bool",
          "name": "",
          "type": "bool"
        }
      ],
      "stateMutability": "nonpayable",
      "type": "function"
    },
    {
      "inputs": [
        {
          "internalType": "address",
          "name": "sender",
          "type": "address"
        },
        {
          "internalType": "address",
          "name": "recipient",
          "type": "address"
        },
        {
          "internalType": "uint256",
          "name": "amount",
          "type": "uint256"
        }
      ],
      "name": "transferFrom",
      "outputs": [
        {
          "internalType": "bool",
          "name": "",
          "type": "bool"
        }
      ],
      "stateMutability": "nonpayable",
      "type": "function"
    }
  ],
  "bytecode": "0x60806040526012600560006101000a81548160ff021916908360ff1602179055503480156200002d57600080fd5b506040516200138838038062001388833981810160405281019062000053919062000212565b8160039081620000649190620004e2565b508060049081620000769190620004e2565b505050620005c9565b6000604051905090565b600080fd5b600080fd5b600080fd5b600080fd5b6000601f19601f8301169050919050565b7f4e487b7100000000000000000000000000000000000000000000000000000000600052604160045260246000fd5b620000e8826200009d565b810181811067ffffffffffffffff821117156200010a5762000109620000ae565b5b80604052505050565b60006200011f6200007f565b90506200012d8282620000dd565b919050565b600067ffffffffffffffff82111562000150576200014f620000ae565b5b6200015b826200009d565b9050602081019050919050565b60005b83811015620001885780820151818401526020810190506200016b565b60008484015250505050565b6000620001ab620001a58462000132565b62000113565b905082815260208101848484011115620001ca57620001c962000098565b5b620001d784828562000168565b509392505050565b600082601f830112620001f757620001f662000093565b5b81516200020984826020860162000194565b91505092915050565b600080604083850312156200022c576200022b62000089565b5b600083015167ffffffffffffffff8111156200024d576200024c6200008e565b5b6200025b85828601620001df565b925050602083015167ffffffffffffffff8111156200027f576200027e6200008e565b5b6200028d85828601620001df565b9150509250929050565b600081519050919050565b7f4e487b7100000000000000000000000000000000000000000000000000000000600052602260045260246000fd5b60006002820490506001821680620002ea57607f821691505b6020821081036200030057620002ff620002a2565b5b50919050565b60008190508160005260206000209050919050565b60006020601f8301049050919050565b600082821b905092915050565b6000600883026200036a7fffffffffffffffffffffffffffffffffffffffffffffffffffffffffffffffff826200032b565b6200037686836200032b565b95508019841693508086168417925050509392505050565b6000819050919050565b6000819050919050565b6000620003c3620003bd620003b7846200038e565b62000398565b6200038e565b9050919050565b6000819050919050565b620003df83620003a2565b620003f7620003ee82620003ca565b84845462000338565b825550505050565b600090565b6200040e620003ff565b6200041b818484620003d4565b505050565b5b8181101562000443576200043760008262000404565b60018101905062000421565b5050565b601f82111562000492576200045c8162000306565b62000467846200031b565b8101602085101562000477578190505b6200048f62000486856200031b565b83018262000420565b50505b505050565b600082821c905092915050565b6000620004b76000198460080262000497565b1980831691505092915050565b6000620004d28383620004a4565b9150826002028217905092915050565b620004ed8262000297565b67ffffffffffffffff811115620005095762000508620000ae565b5b620005158254620002d1565b6200052282828562000447565b600060209050601f8311600181146200055a576000841562000545578287015190505b620005518582620004c4565b865550620005c1565b601f1984166200056a8662000306565b60005b8281101562000594578489015182556001820191506020850194506020810190506200056d565b86831015620005b45784890151620005b0601f891682620004a4565b8355505b6001600288020188555050505b505050505050565b610daf80620005d96000396000f3fe608060405234801561001057600080fd5b50600436106100b45760003560e01c806370a082311161007157806370a082311461018f57806395d89b41146101bf578063a9059cbb146101dd578063d0679d341461020d578063dd62ed3e14610229578063f8b2cb4f14610259576100b4565b806306fdde03146100b9578063095ea7b3146100d757806318160ddd1461010757806323b872dd14610125578063313ce5671461015557806340c10f1914610173575b600080fd5b6100c1610289565b6040516100ce91906109f8565b60405180910390f35b6100f160048036038101906100ec9190610ab3565b610317565b6040516100fe9190610b0e565b60405180910390f35b61010f610409565b60405161011c9190610b38565b60405180910390f35b61013f600480360381019061013a9190610b53565b61040f565b60405161014c9190610b0e565b60405180910390f35b61015d6105c0565b60405161016a9190610bc2565b60405180910390f35b61018d60048036038101906101889190610ab3565b6105d3565b005b6101a960048036038101906101a49190610bdd565b61067e565b6040516101b69190610b38565b60405180910390f35b6101c7610696565b6040516101d491906109f8565b60405180910390f35b6101f760048036038101906101f29190610ab3565b610724565b6040516102049190610b0e565b60405180910390f35b61022760048036038101906102229190610ab3565b610841565b005b610243600480360381019061023e9190610c0a565b61084f565b6040516102509190610b38565b60405180910390f35b610273600480360381019061026e9190610bdd565b610874565b6040516102809190610b38565b60405180910390f35b6003805461029690610c79565b80601f01602080910402602001604051908101604052809291908181526020018280546102c290610c79565b801561030f5780601f106102e45761010080835404028352916020019161030f565b820191906000526020600020905b8154815290600101906020018083116102f257829003601f168201915b505050505081565b600081600260003373ffffffffffffffffffffffffffffffffffffffff1673ffffffffffffffffffffffffffffffffffffffff16815260200190815260200160002060008573ffffffffffffffffffffffffffffffffffffffff1673ffffffffffffffffffffffffffffffffffffffff168152602001908152602001600020819055508273ffffffffffffffffffffffffffffffffffffffff163373ffffffffffffffffffffffffffffffffffffffff167f8c5be1e5ebec7d5bd14f71427d1e84f3dd0314c0f7b2291e5b200ac8c7c3b925846040516103f79190610b38565b60405180910390a36001905092915050565b60005481565b600081600260008673ffffffffffffffffffffffffffffffffffffffff1673ffffffffffffffffffffffffffffffffffffffff16815260200190815260200160002060003373ffffffffffffffffffffffffffffffffffffffff1673ffffffffffffffffffffffffffffffffffffffff168152602001908152602001600020600082825461049d9190610cd9565b9250508190555081600160008673ffffffffffffffffffffffffffffffffffffffff1673ffffffffffffffffffffffffffffffffffffffff16815260200190815260200160002060008282546104f39190610cd9565b9250508190555081600160008573ffffffffffffffffffffffffffffffffffffffff1673ffffffffffffffffffffffffffffffffffffffff16815260200190815260200160002060008282546105499190610d0d565b925050819055508273ffffffffffffffffffffffffffffffffffffffff168473ffffffffffffffffffffffffffffffffffffffff167fddf252ad1be2c89b69c2b068fc378daa952ba7f163c4a11628f55a4df523b3ef846040516105ad9190610b38565b60405180910390a3600190509392505050565b600560009054906101000a900460ff1681565b80600160008473ffffffffffffffffffffffffffffffffffffffff1673ffffffffffffffffffffffffffffffffffffffff16815260200190815260200160002060008282546106229190610d0d565b925050819055508060008082825461063a9190610d0d565b925050819055507f0f6798a560793a54c3bcfe86a93cde1e73087d944c0ea20544137d41213968858282604051610672929190610d50565b60405180910390a15050565b60016020528060005260406000206000915090505481565b600480546106a390610c79565b80601f01602080910402602001604051908101604052809291908181526020018280546106cf90610c79565b801561071c5780601f106106f15761010080835404028352916020019161071c565b820191906000526020600020905b8154815290600101906020018083116106ff57829003601f168201915b505050505081565b600081600160003373ffffffffffffffffffffffffffffffffffffffff1673ffffffffffffffffffffffffffffffffffffffff16815260200190815260200160002060008282546107759190610cd9565b9250508190555081600160008573ffffffffffffffffffffffffffffffffffffffff1673ffffffffffffffffffffffffffffffffffffffff16815260200190815260200160002060008282546107cb9190610d0d565b925050819055508273ffffffffffffffffffffffffffffffffffffffff163373ffffffffffffffffffffffffffffffffffffffff167fddf252ad1be2c89b69c2b068fc378daa952ba7f163c4a11628f55a4df523b3ef8460405161082f9190610b38565b60405180910390a36001905092915050565b61084b82826108bd565b5050565b6002602052816000526040600020602052806000526040600020600091509150505481565b6000600160008373ffffffffffffffffffffffffffffffffffffffff1673ffffffffffffffffffffffffffffffffffffffff168152602001908152602001600020549050919050565b80600160003373ffffffffffffffffffffffffffffffffffffffff1673ffffffffffffffffffffffffffffffffffffffff168152602001908152602001600020600082825461090c9190610cd9565b92505081905550806000808282546109249190610cd9565b925050819055507fcc16f5dbb4873280815c1ee09dbd06736cffcc184412cf7a71a0fdb75d397ca5828260405161095c929190610d50565b60405180910390a15050565b600081519050919050565b600082825260208201905092915050565b60005b838110156109a2578082015181840152602081019050610987565b60008484015250505050565b6000601f19601f8301169050919050565b60006109ca82610968565b6109d48185610973565b93506109e4818560208601610984565b6109ed816109ae565b840191505092915050565b60006020820190508181036000830152610a1281846109bf565b905092915050565b600080fd5b600073ffffffffffffffffffffffffffffffffffffffff82169050919050565b6000610a4a82610a1f565b9050919050565b610a5a81610a3f565b8114610a6557600080fd5b50565b600081359050610a7781610a51565b92915050565b6000819050919050565b610a9081610a7d565b8114610a9b57600080fd5b50565b600081359050610aad81610a87565b92915050565b60008060408385031215610aca57610ac9610a1a565b5b6000610ad885828601610a68565b9250506020610ae985828601610a9e565b9150509250929050565b60008115159050919050565b610b0881610af3565b82525050565b6000602082019050610b236000830184610aff565b92915050565b610b3281610a7d565b82525050565b6000602082019050610b4d6000830184610b29565b92915050565b600080600060608486031215610b6c57610b6b610a1a565b5b6000610b7a86828701610a68565b9350506020610b8b86828701610a68565b9250506040610b9c86828701610a9e565b9150509250925092565b600060ff82169050919050565b610bbc81610ba6565b82525050565b6000602082019050610bd76000830184610bb3565b92915050565b600060208284031215610bf357610bf2610a1a565b5b6000610c0184828501610a68565b91505092915050565b60008060408385031215610c2157610c20610a1a565b5b6000610c2f85828601610a68565b9250506020610c4085828601610a68565b9150509250929050565b7f4e487b7100000000000000000000000000000000000000000000000000000000600052602260045260246000fd5b60006002820490506001821680610c9157607f821691505b602082108103610ca457610ca3610c4a565b5b50919050565b7f4e487b7100000000000000000000000000000000000000000000000000000000600052601160045260246000fd5b6000610ce482610a7d565b9150610cef83610a7d565b9250828203905081811115610d0757610d06610caa565b5b92915050565b6000610d1882610a7d565b9150610d2383610a7d565b9250828201905080821115610d3b57610d3a610caa565b5b92915050565b610d4a81610a3f565b82525050565b6000604082019050610d656000830185610d41565b610d726020830184610b29565b939250505056fea2646970667358221220eb7381f96762b51579952b85081abd91162a5c67290cdf031af717e5c329bb0b64736f6c63430008110033",
  "linkReferences": {},
  "deployedLinkReferences": {}
}