{
  "_format": "hh-sol-artifact-1",
  "contractName": "BridgeStreak",
  "sourceName": "contracts/BridgeStreak.sol",
  "abi": [
    {
      "inputs": [],
      "stateMutability": "nonpayable",
      "type": "constructor"
    },
    {
      "anonymous": false,
      "inputs": [
        {
          "indexed": false,
          "internalType": "address",
          "name": "from",
          "type": "address"
        },
        {
          "indexed": false,
          "internalType": "address",
          "name": "to",
          "type": "address"
        },
        {
          "indexed": false,
          "internalType": "uint256",
          "name": "amount",
          "type": "uint256"
        }
      ],
      "name": "Locked",
      "type": "event"
    },
    {
      "anonymous": false,
      "inputs": [
        {
          "indexed": false,
          "internalType": "address",
          "name": "to",
          "type": "address"
        },
        {
          "indexed": false,
          "internalType": "uint256",
          "name": "amount",
          "type": "uint256"
        }
      ],
      "name": "Unlocked",
      "type": "event"
    },
    {
      "inputs": [],
      "name": "getBalance",
      "outputs": [
        {
          "internalType": "uint256",
          "name": "",
          "type": "uint256"
        }
      ],
      "stateMutability": "view",
      "type": "function"
    },
    {
      "inputs": [
        {
          "internalType": "address",
          "name": "addr",
          "type": "address"
        }
      ],
      "name": "lockedBalance",
      "outputs": [
        {
          "internalType": "uint256",
          "name": "",
          "type": "uint256"
        }
      ],
      "stateMutability": "view",
      "type": "function"
    },
    {
      "inputs": [],
      "name": "owner",
      "outputs": [
        {
          "internalType": "address payable",
          "name": "",
          "type": "address"
        }
      ],
      "stateMutability": "view",
      "type": "function"
    },
    {
      "inputs": [
        {
          "internalType": "address",
          "name": "to",
          "type": "address"
        }
      ],
      "name": "send",
      "outputs": [],
      "stateMutability": "payable",
      "type": "function"
    },
    {
      "inputs": [
        {
          "internalType": "address",
          "name": "addr",
          "type": "address"
        }
      ],
      "name": "unlock",
      "outputs": [],
      "stateMutability": "payable",
      "type": "function"
    },
    {
      "stateMutability": "payable",
      "type": "receive"
    }
  ],
  "bytecode": "0x608060405234801561001057600080fd5b50336000806101000a81548173ffffffffffffffffffffffffffffffffffffffff021916908373ffffffffffffffffffffffffffffffffffffffff1602179055506106be806100606000396000f3fe60806040526004361061004e5760003560e01c806312065fe01461005a5780632f6c493c146100855780633e58c58c146100a15780638da5cb5b146100bd5780639ae697bf146100e857610055565b3661005557005b600080fd5b34801561006657600080fd5b5061006f610125565b60405161007c919061041e565b60405180910390f35b61009f600480360381019061009a919061049c565b610144565b005b6100bb60048036038101906100b6919061049c565b61021d565b005b3480156100c957600080fd5b506100d261026a565b6040516100df91906104ea565b60405180910390f35b3480156100f457600080fd5b5061010f600480360381019061010a919061049c565b61028e565b60405161011c919061041e565b60405180910390f35b60003373ffffffffffffffffffffffffffffffffffffffff1631905090565b8073ffffffffffffffffffffffffffffffffffffffff166108fc349081150290604051600060405180830381858888f1935050505015801561018a573d6000803e3d6000fd5b5034600160008373ffffffffffffffffffffffffffffffffffffffff1673ffffffffffffffffffffffffffffffffffffffff16815260200190815260200160002060008282546101da9190610534565b925050819055507f0f0bc5b519ddefdd8e5f9e6423433aa2b869738de2ae34d58ebc796fc749fa0d8134604051610212929190610577565b60405180910390a150565b600034905061022b816102d7565b7f989eaa915cbb416ea3d6f9a63b1a3de51770c7674b11fe21ecdf76b4e1d1391033838360405161025e939291906105a0565b60405180910390a15050565b60008054906101000a900473ffffffffffffffffffffffffffffffffffffffff1681565b6000600160008373ffffffffffffffffffffffffffffffffffffffff1673ffffffffffffffffffffffffffffffffffffffff168152602001908152602001600020549050919050565b60008054906101000a900473ffffffffffffffffffffffffffffffffffffffff1673ffffffffffffffffffffffffffffffffffffffff163373ffffffffffffffffffffffffffffffffffffffff1614610365576040517f08c379a000000000000000000000000000000000000000000000000000000000815260040161035c90610634565b60405180910390fd5b3073ffffffffffffffffffffffffffffffffffffffff166108fc829081150290604051600060405180830381858888f193505050501580156103ab573d6000803e3d6000fd5b5080600160003373ffffffffffffffffffffffffffffffffffffffff1673ffffffffffffffffffffffffffffffffffffffff16815260200190815260200160002060008282546103fb9190610654565b9250508190555050565b6000819050919050565b61041881610405565b82525050565b6000602082019050610433600083018461040f565b92915050565b600080fd5b600073ffffffffffffffffffffffffffffffffffffffff82169050919050565b60006104698261043e565b9050919050565b6104798161045e565b811461048457600080fd5b50565b60008135905061049681610470565b92915050565b6000602082840312156104b2576104b1610439565b5b60006104c084828501610487565b91505092915050565b60006104d48261043e565b9050919050565b6104e4816104c9565b82525050565b60006020820190506104ff60008301846104db565b92915050565b7f4e487b7100000000000000000000000000000000000000000000000000000000600052601160045260246000fd5b600061053f82610405565b915061054a83610405565b925082820390508181111561056257610561610505565b5b92915050565b6105718161045e565b82525050565b600060408201905061058c6000830185610568565b610599602083018461040f565b9392505050565b60006060820190506105b56000830186610568565b6105c26020830185610568565b6105cf604083018461040f565b949350505050565b600082825260208201905092915050565b7f63616c6c6572206973206e6f74206f776e657200000000000000000000000000600082015250565b600061061e6013836105d7565b9150610629826105e8565b602082019050919050565b6000602082019050818103600083015261064d81610611565b9050919050565b600061065f82610405565b915061066a83610405565b925082820190508082111561068257610681610505565b5b9291505056fea2646970667358221220706f93fff067c138412f4c371be343c1a5e70d69952bb7ada720fdde94064aaf64736f6c63430008110033",
  "linkReferences": {},
  "deployedLinkReferences": {}
}