{
  "_format": "hh-sol-artifact-1",
  "contractName": "BridgeStreak",
  "sourceName": "contracts/BridgeStreak.sol",
  "abi": [
    {
      "inputs": [],
      "stateMutability": "nonpayable",
      "type": "constructor"
    },
    {
      "anonymous": false,
      "inputs": [
        {
          "indexed": false,
          "internalType": "address",
          "name": "from",
          "type": "address"
        },
        {
          "indexed": false,
          "internalType": "address",
          "name": "to",
          "type": "address"
        },
        {
          "indexed": false,
          "internalType": "uint256",
          "name": "amount",
          "type": "uint256"
        }
      ],
      "name": "Locked",
      "type": "event"
    },
    {
      "anonymous": false,
      "inputs": [
        {
          "indexed": false,
          "internalType": "address",
          "name": "to",
          "type": "address"
        },
        {
          "indexed": false,
          "internalType": "uint256",
          "name": "amount",
          "type": "uint256"
        }
      ],
      "name": "Unlocked",
      "type": "event"
    },
    {
      "inputs": [
        {
          "internalType": "address",
          "name": "",
          "type": "address"
        }
      ],
      "name": "balanceOf",
      "outputs": [
        {
          "internalType": "uint256",
          "name": "",
          "type": "uint256"
        }
      ],
      "stateMutability": "view",
      "type": "function"
    },
    {
      "inputs": [],
      "name": "getBalance",
      "outputs": [
        {
          "internalType": "uint256",
          "name": "",
          "type": "uint256"
        }
      ],
      "stateMutability": "view",
      "type": "function"
    },
    {
      "inputs": [
        {
          "internalType": "address",
          "name": "_addr",
          "type": "address"
        }
      ],
      "name": "lockedBalance",
      "outputs": [
        {
          "internalType": "uint256",
          "name": "",
          "type": "uint256"
        }
      ],
      "stateMutability": "view",
      "type": "function"
    },
    {
      "inputs": [],
      "name": "owner",
      "outputs": [
        {
          "internalType": "address payable",
          "name": "",
          "type": "address"
        }
      ],
      "stateMutability": "view",
      "type": "function"
    },
    {
      "inputs": [
        {
          "internalType": "address",
          "name": "_to",
          "type": "address"
        }
      ],
      "name": "send",
      "outputs": [],
      "stateMutability": "payable",
      "type": "function"
    },
    {
      "inputs": [
        {
          "internalType": "address",
          "name": "_addr",
          "type": "address"
        }
      ],
      "name": "unlock",
      "outputs": [],
      "stateMutability": "payable",
      "type": "function"
    },
    {
      "stateMutability": "payable",
      "type": "receive"
    }
  ],
  "bytecode": "0x608060405234801561001057600080fd5b50336000806101000a81548173ffffffffffffffffffffffffffffffffffffffff021916908373ffffffffffffffffffffffffffffffffffffffff160217905550610910806100606000396000f3fe6080604052600436106100595760003560e01c806312065fe0146100655780632f6c493c146100905780633e58c58c146100ac57806370a08231146100c85780638da5cb5b146101055780639ae697bf1461013057610060565b3661006057005b600080fd5b34801561007157600080fd5b5061007a61016d565b6040516100879190610604565b60405180910390f35b6100aa60048036038101906100a59190610682565b61018c565b005b6100c660048036038101906100c19190610682565b610375565b005b3480156100d457600080fd5b506100ef60048036038101906100ea9190610682565b610444565b6040516100fc9190610604565b60405180910390f35b34801561011157600080fd5b5061011a61045c565b60405161012791906106d0565b60405180910390f35b34801561013c57600080fd5b5061015760048036038101906101529190610682565b610480565b6040516101649190610604565b60405180910390f35b60003373ffffffffffffffffffffffffffffffffffffffff1631905090565b60008054906101000a900473ffffffffffffffffffffffffffffffffffffffff1673ffffffffffffffffffffffffffffffffffffffff163373ffffffffffffffffffffffffffffffffffffffff161461021a576040517f08c379a000000000000000000000000000000000000000000000000000000000815260040161021190610748565b60405180910390fd5b34600160008373ffffffffffffffffffffffffffffffffffffffff1673ffffffffffffffffffffffffffffffffffffffff16815260200190815260200160002054101561029c576040517f08c379a0000000000000000000000000000000000000000000000000000000008152600401610293906107b4565b60405180910390fd5b8073ffffffffffffffffffffffffffffffffffffffff166108fc349081150290604051600060405180830381858888f193505050501580156102e2573d6000803e3d6000fd5b5034600160008373ffffffffffffffffffffffffffffffffffffffff1673ffffffffffffffffffffffffffffffffffffffff16815260200190815260200160002060008282546103329190610803565b925050819055507f0f0bc5b519ddefdd8e5f9e6423433aa2b869738de2ae34d58ebc796fc749fa0d813460405161036a929190610846565b60405180910390a150565b600034905080600260003373ffffffffffffffffffffffffffffffffffffffff1673ffffffffffffffffffffffffffffffffffffffff1681526020019081526020016000205410156103fc576040517f08c379a00000000000000000000000000000000000000000000000000000000081526004016103f3906107b4565b60405180910390fd5b610405816104c9565b7f989eaa915cbb416ea3d6f9a63b1a3de51770c7674b11fe21ecdf76b4e1d139103383836040516104389392919061086f565b60405180910390a15050565b60026020528060005260406000206000915090505481565b60008054906101000a900473ffffffffffffffffffffffffffffffffffffffff1681565b6000600160008373ffffffffffffffffffffffffffffffffffffffff1673ffffffffffffffffffffffffffffffffffffffff168152602001908152602001600020549050919050565b3073ffffffffffffffffffffffffffffffffffffffff166108fc829081150290604051600060405180830381858888f1935050505015801561050f573d6000803e3d6000fd5b5080600260003373ffffffffffffffffffffffffffffffffffffffff1673ffffffffffffffffffffffffffffffffffffffff168152602001908152602001600020541015610592576040517f08c379a0000000000000000000000000000000000000000000000000000000008152600401610589906107b4565b60405180910390fd5b80600160003373ffffffffffffffffffffffffffffffffffffffff1673ffffffffffffffffffffffffffffffffffffffff16815260200190815260200160002060008282546105e191906108a6565b9250508190555050565b6000819050919050565b6105fe816105eb565b82525050565b600060208201905061061960008301846105f5565b92915050565b600080fd5b600073ffffffffffffffffffffffffffffffffffffffff82169050919050565b600061064f82610624565b9050919050565b61065f81610644565b811461066a57600080fd5b50565b60008135905061067c81610656565b92915050565b6000602082840312156106985761069761061f565b5b60006106a68482850161066d565b91505092915050565b60006106ba82610624565b9050919050565b6106ca816106af565b82525050565b60006020820190506106e560008301846106c1565b92915050565b600082825260208201905092915050565b7f4530310000000000000000000000000000000000000000000000000000000000600082015250565b60006107326003836106eb565b915061073d826106fc565b602082019050919050565b6000602082019050818103600083015261076181610725565b9050919050565b7f4530320000000000000000000000000000000000000000000000000000000000600082015250565b600061079e6003836106eb565b91506107a982610768565b602082019050919050565b600060208201905081810360008301526107cd81610791565b9050919050565b7f4e487b7100000000000000000000000000000000000000000000000000000000600052601160045260246000fd5b600061080e826105eb565b9150610819836105eb565b9250828203905081811115610831576108306107d4565b5b92915050565b61084081610644565b82525050565b600060408201905061085b6000830185610837565b61086860208301846105f5565b9392505050565b60006060820190506108846000830186610837565b6108916020830185610837565b61089e60408301846105f5565b949350505050565b60006108b1826105eb565b91506108bc836105eb565b92508282019050808211156108d4576108d36107d4565b5b9291505056fea264697066735822122070319b92a15f6522c80e047b9a1c56ba10418091d4839588b42f49728ef24d3b64736f6c63430008110033",
  "linkReferences": {},
  "deployedLinkReferences": {}
}