{
  "_format": "hh-sol-artifact-1",
  "contractName": "BridgeStreak",
  "sourceName": "contracts/BridgeStreak.sol",
  "abi": [
    {
      "inputs": [],
      "stateMutability": "nonpayable",
      "type": "constructor"
    },
    {
      "anonymous": false,
      "inputs": [
        {
          "indexed": false,
          "internalType": "address",
          "name": "from",
          "type": "address"
        },
        {
          "indexed": false,
          "internalType": "address",
          "name": "to",
          "type": "address"
        },
        {
          "indexed": false,
          "internalType": "uint256",
          "name": "amount",
          "type": "uint256"
        }
      ],
      "name": "Locked",
      "type": "event"
    },
    {
      "anonymous": false,
      "inputs": [
        {
          "indexed": false,
          "internalType": "address",
          "name": "new_owner",
          "type": "address"
        }
      ],
      "name": "OwnershipChanged",
      "type": "event"
    },
    {
      "anonymous": false,
      "inputs": [
        {
          "indexed": false,
          "internalType": "address",
          "name": "to",
          "type": "address"
        },
        {
          "indexed": false,
          "internalType": "uint256",
          "name": "amount",
          "type": "uint256"
        }
      ],
      "name": "Unlocked",
      "type": "event"
    },
    {
      "inputs": [
        {
          "internalType": "address",
          "name": "",
          "type": "address"
        }
      ],
      "name": "balanceOf",
      "outputs": [
        {
          "internalType": "uint256",
          "name": "",
          "type": "uint256"
        }
      ],
      "stateMutability": "view",
      "type": "function"
    },
    {
      "inputs": [],
      "name": "getBalance",
      "outputs": [
        {
          "internalType": "uint256",
          "name": "",
          "type": "uint256"
        }
      ],
      "stateMutability": "view",
      "type": "function"
    },
    {
      "inputs": [
        {
          "internalType": "address",
          "name": "_addr",
          "type": "address"
        }
      ],
      "name": "lockedBalance",
      "outputs": [
        {
          "internalType": "uint256",
          "name": "",
          "type": "uint256"
        }
      ],
      "stateMutability": "view",
      "type": "function"
    },
    {
      "inputs": [],
      "name": "owner",
      "outputs": [
        {
          "internalType": "address payable",
          "name": "",
          "type": "address"
        }
      ],
      "stateMutability": "view",
      "type": "function"
    },
    {
      "inputs": [
        {
          "internalType": "address",
          "name": "_to",
          "type": "address"
        }
      ],
      "name": "send",
      "outputs": [],
      "stateMutability": "payable",
      "type": "function"
    },
    {
      "inputs": [
        {
          "internalType": "address",
          "name": "new_owner",
          "type": "address"
        }
      ],
      "name": "transfer_ownership",
      "outputs": [],
      "stateMutability": "nonpayable",
      "type": "function"
    },
    {
      "inputs": [
        {
          "internalType": "address",
          "name": "_addr",
          "type": "address"
        }
      ],
      "name": "unlock",
      "outputs": [],
      "stateMutability": "payable",
      "type": "function"
    },
    {
      "stateMutability": "payable",
      "type": "receive"
    }
  ],
  "bytecode": "0x608060405234801561001057600080fd5b50336000806101000a81548173ffffffffffffffffffffffffffffffffffffffff021916908373ffffffffffffffffffffffffffffffffffffffff160217905550610973806100606000396000f3fe6080604052600436106100745760003560e01c806370a082311161004e57806370a08231146100e35780638da5cb5b146101205780639ae697bf1461014b578063f0350c04146101885761007b565b806312065fe0146100805780632f6c493c146100ab5780633e58c58c146100c75761007b565b3661007b57005b600080fd5b34801561008c57600080fd5b506100956101b1565b6040516100a2919061064c565b60405180910390f35b6100c560048036038101906100c091906106ca565b6101d0565b005b6100e160048036038101906100dc91906106ca565b6103b9565b005b3480156100ef57600080fd5b5061010a600480360381019061010591906106ca565b610406565b604051610117919061064c565b60405180910390f35b34801561012c57600080fd5b5061013561041e565b6040516101429190610718565b60405180910390f35b34801561015757600080fd5b50610172600480360381019061016d91906106ca565b610442565b60405161017f919061064c565b60405180910390f35b34801561019457600080fd5b506101af60048036038101906101aa91906106ca565b61048b565b005b60003373ffffffffffffffffffffffffffffffffffffffff1631905090565b60008054906101000a900473ffffffffffffffffffffffffffffffffffffffff1673ffffffffffffffffffffffffffffffffffffffff163373ffffffffffffffffffffffffffffffffffffffff161461025e576040517f08c379a000000000000000000000000000000000000000000000000000000000815260040161025590610790565b60405180910390fd5b34600160008373ffffffffffffffffffffffffffffffffffffffff1673ffffffffffffffffffffffffffffffffffffffff1681526020019081526020016000205410156102e0576040517f08c379a00000000000000000000000000000000000000000000000000000000081526004016102d7906107fc565b60405180910390fd5b8073ffffffffffffffffffffffffffffffffffffffff166108fc349081150290604051600060405180830381858888f19350505050158015610326573d6000803e3d6000fd5b5034600160008373ffffffffffffffffffffffffffffffffffffffff1673ffffffffffffffffffffffffffffffffffffffff1681526020019081526020016000206000828254610376919061084b565b925050819055507f0f0bc5b519ddefdd8e5f9e6423433aa2b869738de2ae34d58ebc796fc749fa0d81346040516103ae92919061088e565b60405180910390a150565b60003490506103c781610593565b7f989eaa915cbb416ea3d6f9a63b1a3de51770c7674b11fe21ecdf76b4e1d139103383836040516103fa939291906108b7565b60405180910390a15050565b60026020528060005260406000206000915090505481565b60008054906101000a900473ffffffffffffffffffffffffffffffffffffffff1681565b6000600160008373ffffffffffffffffffffffffffffffffffffffff1673ffffffffffffffffffffffffffffffffffffffff168152602001908152602001600020549050919050565b60008054906101000a900473ffffffffffffffffffffffffffffffffffffffff1673ffffffffffffffffffffffffffffffffffffffff163373ffffffffffffffffffffffffffffffffffffffff1614610519576040517f08c379a000000000000000000000000000000000000000000000000000000000815260040161051090610790565b60405180910390fd5b806000806101000a81548173ffffffffffffffffffffffffffffffffffffffff021916908373ffffffffffffffffffffffffffffffffffffffff1602179055507f595ee9ffef04d4d652b768860c56905a48f5ab79124bb3b2279df1885536991d8160405161058891906108ee565b60405180910390a150565b3073ffffffffffffffffffffffffffffffffffffffff166108fc829081150290604051600060405180830381858888f193505050501580156105d9573d6000803e3d6000fd5b5080600160003373ffffffffffffffffffffffffffffffffffffffff1673ffffffffffffffffffffffffffffffffffffffff16815260200190815260200160002060008282546106299190610909565b9250508190555050565b6000819050919050565b61064681610633565b82525050565b6000602082019050610661600083018461063d565b92915050565b600080fd5b600073ffffffffffffffffffffffffffffffffffffffff82169050919050565b60006106978261066c565b9050919050565b6106a78161068c565b81146106b257600080fd5b50565b6000813590506106c48161069e565b92915050565b6000602082840312156106e0576106df610667565b5b60006106ee848285016106b5565b91505092915050565b60006107028261066c565b9050919050565b610712816106f7565b82525050565b600060208201905061072d6000830184610709565b92915050565b600082825260208201905092915050565b7f4530310000000000000000000000000000000000000000000000000000000000600082015250565b600061077a600383610733565b915061078582610744565b602082019050919050565b600060208201905081810360008301526107a98161076d565b9050919050565b7f4530320000000000000000000000000000000000000000000000000000000000600082015250565b60006107e6600383610733565b91506107f1826107b0565b602082019050919050565b60006020820190508181036000830152610815816107d9565b9050919050565b7f4e487b7100000000000000000000000000000000000000000000000000000000600052601160045260246000fd5b600061085682610633565b915061086183610633565b92508282039050818111156108795761087861081c565b5b92915050565b6108888161068c565b82525050565b60006040820190506108a3600083018561087f565b6108b0602083018461063d565b9392505050565b60006060820190506108cc600083018661087f565b6108d9602083018561087f565b6108e6604083018461063d565b949350505050565b6000602082019050610903600083018461087f565b92915050565b600061091482610633565b915061091f83610633565b92508282019050808211156109375761093661081c565b5b9291505056fea264697066735822122034a68ba118137a0cdaa63114dc359fa839ce3cdcca393623c8057d7c6374c22664736f6c63430008110033",
  "linkReferences": {},
  "deployedLinkReferences": {}
}