{
  "_format": "hh-sol-artifact-1",
  "contractName": "BridgeStreak",
  "sourceName": "contracts/BridgeStreak.sol",
  "abi": [
    {
      "inputs": [],
      "stateMutability": "nonpayable",
      "type": "constructor"
    },
    {
      "anonymous": false,
      "inputs": [
        {
          "indexed": false,
          "internalType": "address",
          "name": "from",
          "type": "address"
        },
        {
          "indexed": false,
          "internalType": "address",
          "name": "to",
          "type": "address"
        },
        {
          "indexed": false,
          "internalType": "uint256",
          "name": "amount",
          "type": "uint256"
        }
      ],
      "name": "Locked",
      "type": "event"
    },
    {
      "anonymous": false,
      "inputs": [
        {
          "indexed": false,
          "internalType": "address",
          "name": "to",
          "type": "address"
        },
        {
          "indexed": false,
          "internalType": "uint256",
          "name": "amount",
          "type": "uint256"
        }
      ],
      "name": "Unlocked",
      "type": "event"
    },
    {
      "inputs": [
        {
          "internalType": "address",
          "name": "",
          "type": "address"
        }
      ],
      "name": "balanceOf",
      "outputs": [
        {
          "internalType": "uint256",
          "name": "",
          "type": "uint256"
        }
      ],
      "stateMutability": "view",
      "type": "function"
    },
    {
      "inputs": [],
      "name": "getBalance",
      "outputs": [
        {
          "internalType": "uint256",
          "name": "",
          "type": "uint256"
        }
      ],
      "stateMutability": "view",
      "type": "function"
    },
    {
      "inputs": [
        {
          "internalType": "address",
          "name": "_addr",
          "type": "address"
        }
      ],
      "name": "lockedBalance",
      "outputs": [
        {
          "internalType": "uint256",
          "name": "",
          "type": "uint256"
        }
      ],
      "stateMutability": "view",
      "type": "function"
    },
    {
      "inputs": [],
      "name": "owner",
      "outputs": [
        {
          "internalType": "address payable",
          "name": "",
          "type": "address"
        }
      ],
      "stateMutability": "view",
      "type": "function"
    },
    {
      "inputs": [
        {
          "internalType": "address",
          "name": "_to",
          "type": "address"
        }
      ],
      "name": "send",
      "outputs": [],
      "stateMutability": "payable",
      "type": "function"
    },
    {
      "inputs": [
        {
          "internalType": "address",
          "name": "_addr",
          "type": "address"
        }
      ],
      "name": "unlock",
      "outputs": [],
      "stateMutability": "payable",
      "type": "function"
    },
    {
      "stateMutability": "payable",
      "type": "receive"
    }
  ],
  "bytecode": "0x608060405234801561001057600080fd5b50336000806101000a81548173ffffffffffffffffffffffffffffffffffffffff021916908373ffffffffffffffffffffffffffffffffffffffff16021790555061080c806100606000396000f3fe6080604052600436106100595760003560e01c806312065fe0146100655780632f6c493c146100905780633e58c58c146100ac57806370a08231146100c85780638da5cb5b146101055780639ae697bf1461013057610060565b3661006057005b600080fd5b34801561007157600080fd5b5061007a61016d565b6040516100879190610500565b60405180910390f35b6100aa60048036038101906100a5919061057e565b61018c565b005b6100c660048036038101906100c1919061057e565b610375565b005b3480156100d457600080fd5b506100ef60048036038101906100ea919061057e565b6103c2565b6040516100fc9190610500565b60405180910390f35b34801561011157600080fd5b5061011a6103da565b60405161012791906105cc565b60405180910390f35b34801561013c57600080fd5b506101576004803603810190610152919061057e565b6103fe565b6040516101649190610500565b60405180910390f35b60003373ffffffffffffffffffffffffffffffffffffffff1631905090565b60008054906101000a900473ffffffffffffffffffffffffffffffffffffffff1673ffffffffffffffffffffffffffffffffffffffff163373ffffffffffffffffffffffffffffffffffffffff161461021a576040517f08c379a000000000000000000000000000000000000000000000000000000000815260040161021190610644565b60405180910390fd5b34600160008373ffffffffffffffffffffffffffffffffffffffff1673ffffffffffffffffffffffffffffffffffffffff16815260200190815260200160002054101561029c576040517f08c379a0000000000000000000000000000000000000000000000000000000008152600401610293906106b0565b60405180910390fd5b8073ffffffffffffffffffffffffffffffffffffffff166108fc349081150290604051600060405180830381858888f193505050501580156102e2573d6000803e3d6000fd5b5034600160008373ffffffffffffffffffffffffffffffffffffffff1673ffffffffffffffffffffffffffffffffffffffff168152602001908152602001600020600082825461033291906106ff565b925050819055507f0f0bc5b519ddefdd8e5f9e6423433aa2b869738de2ae34d58ebc796fc749fa0d813460405161036a929190610742565b60405180910390a150565b600034905061038381610447565b7f989eaa915cbb416ea3d6f9a63b1a3de51770c7674b11fe21ecdf76b4e1d139103383836040516103b69392919061076b565b60405180910390a15050565b60026020528060005260406000206000915090505481565b60008054906101000a900473ffffffffffffffffffffffffffffffffffffffff1681565b6000600160008373ffffffffffffffffffffffffffffffffffffffff1673ffffffffffffffffffffffffffffffffffffffff168152602001908152602001600020549050919050565b3073ffffffffffffffffffffffffffffffffffffffff166108fc829081150290604051600060405180830381858888f1935050505015801561048d573d6000803e3d6000fd5b5080600160003373ffffffffffffffffffffffffffffffffffffffff1673ffffffffffffffffffffffffffffffffffffffff16815260200190815260200160002060008282546104dd91906107a2565b9250508190555050565b6000819050919050565b6104fa816104e7565b82525050565b600060208201905061051560008301846104f1565b92915050565b600080fd5b600073ffffffffffffffffffffffffffffffffffffffff82169050919050565b600061054b82610520565b9050919050565b61055b81610540565b811461056657600080fd5b50565b60008135905061057881610552565b92915050565b6000602082840312156105945761059361051b565b5b60006105a284828501610569565b91505092915050565b60006105b682610520565b9050919050565b6105c6816105ab565b82525050565b60006020820190506105e160008301846105bd565b92915050565b600082825260208201905092915050565b7f4530310000000000000000000000000000000000000000000000000000000000600082015250565b600061062e6003836105e7565b9150610639826105f8565b602082019050919050565b6000602082019050818103600083015261065d81610621565b9050919050565b7f4530320000000000000000000000000000000000000000000000000000000000600082015250565b600061069a6003836105e7565b91506106a582610664565b602082019050919050565b600060208201905081810360008301526106c98161068d565b9050919050565b7f4e487b7100000000000000000000000000000000000000000000000000000000600052601160045260246000fd5b600061070a826104e7565b9150610715836104e7565b925082820390508181111561072d5761072c6106d0565b5b92915050565b61073c81610540565b82525050565b60006040820190506107576000830185610733565b61076460208301846104f1565b9392505050565b60006060820190506107806000830186610733565b61078d6020830185610733565b61079a60408301846104f1565b949350505050565b60006107ad826104e7565b91506107b8836104e7565b92508282019050808211156107d0576107cf6106d0565b5b9291505056fea2646970667358221220f34c823cb4fa38b39ef235ad9e26162abd647eb66d9369e04c7d1bd808acfd8d64736f6c63430008110033",
  "linkReferences": {},
  "deployedLinkReferences": {}
}